:020000040800F2
:10000000682F002079020008C12700087D1F000822
:1000100035260008391B0008673D00080000000075
:100020000000000000000000000000009D2E0008FD
:10003000F91B000800000000452D00086D31000884
:10004000930200089302000893020008930200083C
:10005000930200089302000893020008930200082C
:10006000930200089302000893020008930200081C
:1000700093020008A91B00089302000893020008DD
:1000800093020008930200089302000893020008FC
:1000900093020008930200089302000893020008EC
:1000A00093020008930200089302000893020008DC
:1000B0004932000879350008E53500089302000848
:1000C00093020008930200089302000893020008BC
:1000D0009302000893020008353A0008B13A00087C
:1000E000930200089302000893020008930200089C
:1000F000930200089302000893020008930200088C
:10010000930200089302000893020008930200087B
:10011000930200089302000893020008930200086B
:10012000930200089302000893020008930200085B
:1001300000F002F800F090F80AA090E8000C824469
:100140008344AAF10107DA4501D100F085F8AFF246
:10015000090EBAE80F0013F0010F18BFFB1A43F0A5
:10016000010318474051000060510000103A24BFBD
:1001700078C878C1FAD8520724BF30C830C144BF0C
:1001800004680C607047000000230024002500264E
:10019000103A28BF78C1FBD8520728BF30C148BFEA
:1001A0000B6070476E2900F03384702900F04581A0
:1001B000662905F00080652904F0FD87672904F0B1
:1001C000FA876129AFF3008003681B0A28BF41F05A
:1001D0008001692900F0E083642900F0DD8375293E
:1001E00000F0DA836F2900F02887782900F0118168
:1001F000E92900F0C386E42900F0C086F52900F063
:10020000BD86EF2900F02587F82900F010810368EA
:10021000DB0928BF41F08001632900F0448673297F
:1002200000F04986E32900F0B387F32900F0B8878E
:10023000002070471FB500F03FFB040000200021A4
:1002400004F09EFA401C60600020002104F0AEFA29
:10025000E0601FBD10B510BD01F078F81146FFF742
:10026000E9FF04F0EEF901F096F803B4FFF7F2FFAE
:1002700003BC04F0E4F9000009488047094800473E
:10028000FEE7FEE7FEE7FEE7FEE7FEE7FEE7FEE746
:10029000FEE7FEE704480549054A064B70470000A3
:1002A000713100083101000868290020682F002002
:1002B000682B0020682B00207047000010B500F06C
:1002C000FBFA001D10BD00BFB94400001CB50C4670
:1002D000064B7B4469460090204600F0C2FD044670
:1002E0000020694600F0D0FD20461CBDB30B000085
:1002F0000FB41CB5084B06AA7B44694600900598CC
:1003000000F0AFFD04460020694600F0BDFD204628
:100310001CBC5DF814FB00008D0B000070B504469A
:1003200085690068C10601D5302600E02026C00797
:1003300007D070BDD4E9012130469047206A401CA7
:1003400020626D1EF6D570BD70B5044685690078D3
:10035000C00707D170BDD4E9012120209047206A51
:10036000401C20626D1EF6D570BD70B50C4605466A
:10037000012A05D02878800600D5EA69002302E02A
:10038000012305E05B1C934202D2E05C0028F9D116
:10039000A869E618C01AA861286A18442862284685
:1003A000FFF7BCFF04E0D5E9012114F8010B9047E9
:1003B000B442F8D32846FFF7C7FF70BDF0B40D462E
:1003C0000188090502D5214C7C4402E01F4C7C4485
:1003D0000E34002100F1240608E002F00F07120994
:1003E000E75D42EA03721B097754491C52EA03078E
:1003F000F3D102780023120704D5702D06D009B17D
:10040000022311342246F0BC00F06CBA01231034F0
:10041000F8E770B504460D462146106800F059FA19
:10042000024629462046BDE870400023C6E7D21D9B
:1004300022F00703D3E90023C0E70368126843F002
:10044000200303600823C3610023B7E7EE4D0000DB
:100450002DE9F05F894604464FF0000ADFF874B1D9
:10046000FB44C0F820A02046E1688847002874D0EB
:10047000252806D0D4E901219047206A401C20623B
:10048000F1E700265F462046E168884720280546B8
:1004900007DB312D05D2781910F8200C08B106437E
:1004A000F1E7B00701D526F00406C4F81CA0002728
:1004B000C4F818A02A2D09D0284604F0B9F838B39A
:1004C00004EB8708303DC8F8185019E059F8041BB0
:1004D000204604EB87029161E1688847012F0546B9
:1004E00018D1E069002820DA26F020061DE0D8F8AF
:1004F000180000EB800005EB40003038C8F8180009
:100500002046E1688847054604F092F80028EED1BD
:10051000012F0AD02E2D08D12046E16888477F1C84
:100520000546022F46F02006C4DBA069002803DA46
:10053000404246F00106A061F00701D026F0100607
:100540006C2D0BD0682D09D04C2D39D06A2D35D0AB
:10055000742D35D07A2D33D016E038E0E1682F467F
:1005600020468847B842054609D16C2F26D04FF463
:100570008060E168064320468847054604E06C2F0A
:100580001AD04FF4807006430DB3A5F1410019282D
:1005900002D8203546F400664A46294620462660A1
:1005A0004E46FFF7FFFD80B101280BD0F61D26F067
:1005B000070000F1080956E74020E4E78020D8E76B
:1005C0000020D6E706F104094DE7284652E7206AE5
:1005D000BDE8F09F7E4D000030B505460B462A462B
:1005E00013F8014B12F8010B08B1A042F8D01CB16E
:1005F000002802D06D1CF1E7284630BD40EA010317
:1006000010B59B070FD1042A0DD310C808C9121FBB
:100610009C42F8D020BA19BA884201D9012010BDF5
:100620004FF0FF3010BD1AB1D30703D0521C07E0C2
:10063000002010BD10F8013B11F8014B1B1B07D126
:1006400010F8013B11F8014B1B1B01D1921EF1D197
:10065000184610BD40EA0103024630B59B0710D191
:100660004FF0013400E008C208C91D1B9D4315EA84
:10067000C41FF8D013F0FF0102F8011B0DD01B0AB4
:10068000F8E711F8013B002B02F8013B05D011F807
:10069000013B002B02F8013BF3D130BD10B5431CE8
:1006A00002E010F8011B71B18107FAD14FF001325D
:1006B00002C88C1A8C4314EAC211F9D0C01A0A0677
:1006C00003D0C01E10BDC01A10BD0A0401D0801E88
:1006D00010BD0902FCD0401E10BD032A40F230803C
:1006E00010F0030C00F0158011F8013BBCF1020F73
:1006F000624498BF11F801CB00F8013B38BF11F8F4
:10070000013BA2F1040298BF00F801CB38BF00F80A
:10071000013B11F0030300F02580083AC0F0088087
:1007200051F8043B083A51F804CBA0E80810F5E76B
:10073000121D5CBF51F8043B40F8043BAFF300804E
:10074000D20724BF11F8013B11F801CB48BF11F8C3
:10075000012B24BF00F8013B00F801CB48BF00F893
:10076000012B704710B5203AC0F00B80B1E818504B
:10077000203AA0E81850B1E81850A0E81850BFF48B
:10078000F5AF5FEA027C24BFB1E81850A0E818502A
:1007900044BF18C918C0BDE810405FEA827C24BF7E
:1007A00051F8043B40F8043B08BF7047D20728BF0C
:1007B00031F8023B48BF11F8012B28BF20F8023B5B
:1007C00048BF00F8012B70474FF000020429C0F029
:1007D000128010F0030C00F01B80CCF1040CBCF173
:1007E000020F18BF00F8012BA8BF20F8022BA1EBC5
:1007F0000C0100F00DB85FEAC17C24BF00F8012BAA
:1008000000F8012B48BF00F8012B70474FF00002A1
:1008100000B5134694469646203922BFA0E80C50F6
:10082000A0E80C50B1F12001BFF4F7AF090728BFD1
:10083000A0E80C5048BF0CC05DF804EB890028BF4D
:1008400040F8042B08BF704748BF20F8022B11F076
:10085000804F18BF00F8012B704710B5044610F008
:10086000030F08BF11F0030F40F015804FF0013E59
:10087000121FC0F20E8051F8043BA3EB0E0C2CEAC1
:10088000030C1CEACE1C08BF40F8043BF0D0A1F1D9
:10089000040102F10402521E08DB11F8013B002B97
:1008A00000F8013BF7D11146FFF78EFF204610BD3F
:1008B00070477047704770470048704728290020EC
:1008C00009684A0501D540B27047C905FCD500B298
:1008D000704709684A0501D5C0B27047C905FCD503
:1008E00080B270472DE9F0470D469946924604467E
:1008F00000F124080168880604D5E06921F01001A0
:10090000216000E00120A84201DD471B00E0002734
:10091000A1697A1902EB0900081AA0612078C006C3
:1009200002D42046FFF7FAFC002608E0D4E90121B2
:100930001AF806009047206A401C761C20624E453B
:10094000F4DB2078C0060AD52046FFF7E7FC06E076
:10095000D4E9012130209047206A401C2062381ED3
:10096000A7F10107F4DC07E0D4E9012118F805003C
:100970009047206A401C2062281EA5F10105F3DC87
:100980002046FFF7E1FC2078000602D50220BDE8F2
:10099000F0870120FBE700002DE9F0410646002426
:1009A00010687529314616A510D0FFF789FF002879
:1009B00002DA404213A507E031688A0701D512A583
:1009C00002E0490704D511A5012401E0FFF781FFEA
:1009D00000210A2206F1240709E0B0FBF2FCB0FB7B
:1009E000F2F302FB1C00303078541846491C0028F2
:1009F000F3D123462A463046BDE8F041FFF772BFE7
:100A0000000000002D0000002B000000200000006E
:100A100011680268006A530501D508700AE0D30521
:100A200001D5088006E0130603D5C217C1E900020C
:100A300000E008600120704770472DE9FF4F0C4629
:100A40001E464FF0FF378BB0D2E90001DDF8608021
:100A50000A908A46C1F30A5505B93D460021084669
:100A60004FF00000BAF1000F00F4400005DA00EB8F
:100A700080004FF4400101EA50004FEA9059B9F16B
:100A8000010F00DDB9460A9850EA4A000ED044F63C
:100A90001050A5F2FF3545432F14B8F1000F1ED0BA
:100AA0007542291E1EDDC9F100021CE0B8F1010FDC
:100AB0004FF0000001D0302103E0F24305E0215463
:100AC000401CB042FBDB30460022002121540B9930
:100AD000C1F80880C1E900200FB0BDE8F08FBD1B50
:100AE0006D1CDEE74A4600DA694206A800F05CFBAE
:100AF00006AB93E8070003AB83E8070050460A996A
:100B000000F052FC8DE80700A0F500501F3800905F
:100B10000398002D0ADD42F21F014A4608440023D3
:100B200003A90390684600F0BBFE09E0A0F5005061
:100B30004A461F38002303A90390684600F0C5FE0B
:100B40008DE807000004000C03D04FF0FF3041088F
:100B500000E01046B8F1000F03D0002200921546C5
:100B60001EE0751E05D400F083FA303262556D1E0A
:100B7000F9D5B3460122084302D000227F1C04E0CD
:100B80002078302801D100227F1E002A099784D0C6
:100B90001DE0112D07DA00F06BFA303262556D1C42
:100BA00050EA0102F5D1084302D00098C8B10EE026
:100BB0000021681E05E0235C625C63542254401EE1
:100BC000491C8142F7DBAB46A81B401E0990002060
:100BD00004F80B000B98099AC0F80880C0E9002BB4
:100BE0007AE711264FF0000857E72DE9F04F8846C5
:100BF0000446D21D22F0070191B0D1E90001CDE9F0
:100C00000A0103F001FD02460B98C00F01D02D2010
:100C100007E02068810701D52B2002E0202101EAAE
:100C2000C000032A099001D0072A05DB034641468C
:100C3000204600F063FA0BE12078800601D5E069D8
:100C400000E00620B8F1650F814606D0B8F1660FC6
:100C500018D0B8F1670F70D131E00020B9F1110F51
:100C6000009001DB112301E009F101030AAA01A9A7
:100C70000CA8FFF7E2FEDDE90C70002609F1010582
:100C8000834647E001204B4600904FF000470AAAF8
:100C900001A90CA8FFF7D1FEDDE90DB00C995D4666
:100CA000002610B909F101000D18B9EB050003D4B5
:100CB000C0F1FF3609F10105A5EB09002BE0B9F100
:100CC000010F01DA4FF001090020B9F1110F009076
:100CD000484601DD112300E003460AAA01A90CA839
:100CE000FFF7ABFEDDE90C704D4600268346207809
:100CF00000070AD4AB4500DA5D4601A8012D04DDEA
:100D0000411911F8011C302907D04F4502DA17F1BB
:100D1000040F04DA012082460FE06D1EEEE7002F7B
:100D200002DCED1B3E4403E0781CA84200DD7D1C84
:100D3000B81B00F1010A4FF000472078000703D4E8
:100D4000AA4501DB4FF0FF3A0021B7F1004F0DF14A
:100D500043088DF8431024D002202B23002F01DA02
:100D60007F422D230A21021EA0F1010000DC5FB1A9
:100D700097FBF1FC97FBF1F201FB1C7C17460CF191
:100D8000300C08F801CDEEE7A8F1010003702188CE
:100D9000090501D5452100E06521A0F1010800F811
:100DA000011C09980FA9A1EB0807FF1D00B1012044
:100DB000411901EBEA70A1693844081A401EA0618C
:100DC0002078C00602D42046FFF7A8FA099828B177
:100DD000D4E901219047206A401C20622078C00697
:100DE00022D52046FFF79AFA1EE0002E04DBB34519
:100DF00002DD01A8805D00E03020D4E901219047A8
:100E0000206A401C2062761CAAF101005FEA000AF9
:100E10000AD1FFF751FDC0680168405CD4E90121A7
:100E20009047206A401C2062281EA5F10105DCDCE9
:100E300007E0D4E9012118F8010B9047206A401C13
:100E40002062381EA7F10107F3DC2046FFF77CFA89
:100E5000032011B041E6000001694A1C02610878D4
:100E6000704700B58FB0CDE90131002105910549EA
:100E70007944CDE9031011466846FFF7E9FA0FB04F
:100E800000BD0000E5FFFFFF0A6802F8010B0A60E1
:100E9000704710B5436913B1AFF3008001E0FFF76D
:100EA00064FA012010BD127800F124010A700022BA
:100EB0004A700122EDE711684FF0FF32E9E70000C8
:100EC0002DE9FF5F15468A460446DFF8AC80F844FA
:100ED0000027D8E900103E46CDE9001010E03AF8AE
:100EE00016106A4602A800F0D1F9411C07D02178FB
:100EF000890603D5E269391891420DD80744761C5A
:100F00002078800602D5E069B84205DDAE42E6DB16
:100F10003AF816000028E2D1A069C01BA061204663
:100F2000FFF7FCF9D8E90010CDE90010002017E028
:100F30003AF818106A4602A800F0A8F9B0F1FF3F8D
:100F400081460BD000250DF1080B05E0D4E9012105
:100F50001BF8050090476D1C4D45F7D308F10100C3
:100F6000B0428046E4DB206A384420622046FFF726
:100F7000EBF9BDE8FF9F0000224300002DE9F0419E
:100F80008046D21D22F007020025D2E90002F52991
:100F900015A614D0011E72F1000106DA0023D0EB71
:100FA000030063EB020211A608E0D8F800108B07DB
:100FB00001D50FA602E0490701D50EA6012511466D
:100FC000002408F1240704E000F052F830323A55CA
:100FD000641C50EA0102F7D12B46324621464046B6
:100FE000BDE8F041FFF77EBC000000002D000000CE
:100FF0002B0000002000000030B4002100F1240488
:1010000008E002F00705D208303542EA4372DB08F7
:101010006554491C52EA0305F3D10468002310A269
:10102000250707D5A40600D421B1C46901230DA268
:10103000641EC46130BCFFF755BC10B504462146A0
:101040001068FFF746FC02462046BDE8104000232A
:10105000D2E7D21D22F00701D1E90023CCE700003E
:101060000000000030000000004870470829002000
:1010700030B5B0F10A024FEA900E71F100034EEA6A
:10108000817EB0EB0E0061EB91014FEA101E4EEA3B
:10109000017E10EB0E0041EB11114FEA102E4EEACB
:1010A000016E10EB0E0041EB11214FEA104E4EEA9B
:1010B000014E10EB0E0041EB1141401841F10001CF
:1010C0004FEAD00040EA41704FEAD10110EB8005B1
:1010D0004FEA810444EA907444EB01046D1944EB37
:1010E0000404521BA3414FF0000348BF0A3200D54D
:1010F00030BD401C41F1000130BD00002DE9F04140
:101100001F46044603260168072A01F4006004DB39
:1011100008B116A505E016A503E008B115A500E085
:1011200015A521F010002060A069C01EA0610FB1BC
:10113000401EA0612046FFF7F1F84FB1D4E901212C
:1011400038469047206A401C2062C01C206206E09E
:10115000206AFAE7D4E9012115F8010B9047761EC1
:10116000F8D22046FFF7F0F8BDE8F0814E414E007E
:101170006E616E00494E4600696E660010B54369A7
:1011800013B1AFF3008001E0FFF79AFE012010BD1C
:10119000128800F1240182840022C2840122EDE73A
:1011A00011684FF0FF32E9E72DE9F0478146164616
:1011B0008AB0354878440DC88DE80D00324878442F
:1011C000801C03AC0DC884E80D0041F69B30084438
:1011D000372190FBF1F290FBF1F5A5F1800501FBC1
:1011E00012041B3C02D56442012000E00020DFF81D
:1011F00098A080460027FA44AAF1BE0A0EE0E00754
:101200000AD03246684607EB470101230AEB810109
:1012100000F05BFB8DE8070064107F1C002CEED112
:10122000194F7F44AE3F19E0E80715D007EB0410D3
:101230000DF1180A90E80E008AE80E00C068F0422E
:1012400001D1981908903246012306A903A800F09D
:101250003CFB03AB83E807006D10641C002DE3D159
:101260004FF0010332466946B8F1000F03A802D0DF
:1012700000F016FB01E000F028FBC9E90001C9F805
:1012800008200AB0BDE8F087C040000070B51646DF
:101290000C460546FFF712F8036893F80101012890
:1012A00006D0FF2C0FD8185D68B101202C7070BDDE
:1012B000D3F807013246214603F2071303442846B8
:1012C000BDE8704018474FF0FF3070BD4FF0013C53
:1012D00050F8042B51F8043B9A4221D1A2EB0C03A5
:1012E000934313EACC1317D150F8042B51F8043B65
:1012F0009A4215D1A2EB0C03934313EACC130BD102
:1013000050F8042B51F8043B9A4209D1A2EB0C038C
:10131000934313EACC13DBD04FF00000704700BFBB
:10132000D01A01BAB1FA81F101F0180122FA01F0E4
:10133000CB40C1F12001DBB2C0B2C01A2CFA01F3DC
:10134000D11A914311EAC311E6D170477546FFF7F0
:101350008BFEAE4605006946534620F007008546E1
:1013600018B020B5FEF796FFBDE820404FF000060C
:101370004FF000074FF000084FF0000B21F007017D
:10138000AC46ACE8C009ACE8C009ACE8C009ACE8C0
:10139000C0098D46704710B50446AFF30080204663
:1013A000BDE81040FEF761BF5FEA400C08BF91F056
:1013B000000F4FEA8C234FEAC12243EA51514FEA12
:1013C0001C5018BF00F5F0404FEA300018BF41F044
:1013D00000415FEA6C5C00F02980BCF1FF3F08BF70
:1013E00040F080407047130C06BF12044FF0100C01
:1013F0004FF0000C130E04BF12020CF1080C130F77
:1014000004BF12010CF1040C930F04BF92000CF105
:10141000020CD30F04BF52000CF1010C11464FF027
:101420000002A0F11F00A0EB0C00704711F0004F6C
:1014300008BF704731F000413FF4D5AF0B0C06BF39
:1014400009044FF0100C4FF0000C0B0E04BF090202
:101450000CF1080C0B0F04BF09010CF1040C8B0FED
:1014600004BF89000CF1020CCB0F04BF49000CF142
:10147000010CCCF12003A0EB0C0022FA03F302FADA
:101480000CF241EA030100F10100704720F07F4CAB
:1014900080EA030023F07F47ACEB070303F57C539E
:1014A00000F0004003F1FF032DE980494FEA154B9E
:1014B00009B44FEA144325EA0B4E24EA03480FF21D
:1014C000042606EB132749083E785FEA320203FB45
:1014D0000667C7F5000707FB06F64FEA54374FEAE1
:1014E000D64606F1020607FB066CCCF1005C4FEA1B
:1014F0001C472CEA074C07FB06F40CFB06F504EB33
:1015000015464FEA961634BF00204FF000404FEAD0
:10151000D13706FB07FC4FEA1C4C0CFB0BF7D21B28
:1015200003FB0CF761EB07010CFB0EF7B0EB074078
:1015300072EB17420CFB08F734BFA2EB0742B2EB89
:10154000074261EB17414FEA0C444FEA910706FB53
:1015500007FC4FEA1C4C0CFB0BF7B0EBC74072EBDF
:10156000573203FB0CF734BFA2EBC742B2EBC742C2
:1015700061EB57310CFB0EF7B0EBC70072EB577203
:101580000CFB08F734BFA2EBC702B2EBC70261EB5A
:101590005771039F4FEA816141EA921104EBCC0439
:1015A0004FEAD1374FEA826206FB07FC42EA90120B
:1015B0004FEA80604FEA1C4C0CFB0BF7D21B03FB7D
:1015C0000CF761EB07010CFB0EF7B0EB074072EB79
:1015D00017420CFB08F734BFA2EB0742B2EB0742FD
:1015E00061EB17414FEA8C554FEA910704EB9C24BD
:1015F00006FB07FC4FEA1C4C0CFB0BF7B0EBC7409B
:1016000072EB573203FB0CF734BFA2EBC742B2EBCD
:10161000C74261EB57310CFB0EF7B0EBC70072EB22
:1016200057720CFB08F734BFA2EBC702B2EBC7023C
:1016300061EB577115EB4C254FEA816141EA92113C
:101640004FEA82624FEAD13742EA901206FB07FC6A
:1016500044F100044FEA80604FEA1C4C0CFB0BF78E
:10166000D21B03FB0CF761EB07010CFB0EF7B0EB91
:10167000074072EB17420CFB08F734BFA2EB07429E
:10168000B2EB074261EB174115EB1C154FEA8131B4
:1016900041EA92414FEA823242EA90424FEA803078
:1016A0004FEA0C7644F1000448EA03434EEA0B4843
:1016B0004FF0000EB2EB080C71EB030724BF62463B
:1016C00039464EEB0E0E4FF0000B001852414941C7
:1016D0004BEB0B0BB2EB080C71EB03077BF1000B30
:1016E00024BF624639464EEB0E0E4FF0000B001839
:1016F000524149414BEB0B0BB2EB080C71EB03076A
:101700007BF1000B24BF624639464EEB0E0E51EAC8
:10171000020718BF46F0010616EB0E7655F10002DF
:1017200054F1000103D5BDE88901BDE80088BDE89A
:101730008901BDE80048B619524141EB0101A3F10E
:101740000103704780807F7E7D7C7B7A7978777615
:1017500076757473727171706F6E6E6D6C6C6B6A8E
:101760006A6968686766666564646363626161602C
:10177000605F5F5E5E5D5D5C5C5B5B5A5A595958A9
:101780005857575656555555545453535252525113
:10179000515050504F4F4F4E4E4D4D4D4C4C4C4B69
:1017A0004B4B4A4A4A4949494848484747474746B0
:1017B00046464545454444444443434343424242EC
:1017C00042414141002B9C4630D477002BD01CB5C0
:1017D0004FEA370703B44FF010004FF01001BAF191
:1017E000000F06D0BCF1000FDCBF40F0080040F055
:1017F00008014FF000000FBCBDE810400BF1010BD9
:10180000BBF1010F08BF5FEA170722BF12F1010207
:1018100011F101014FF0004143F1000300F00040DD
:1018200043EA00007047F9D35708D0E746EA064676
:1018300013F1400F4FEA16461FDD13F1200FDFBFF3
:1018400016430A46002120335B42BED0C3F1200775
:1018500046EA064602FA07F74FEA164646EA070640
:10186000C3F1200722FA03F201FA07F721FA03F184
:101870004FF0000342EA0702A7E746EA020646EAFB
:1018800006464FEA164646EA0106BCBF46EA064649
:10189000360C4FF000034FF000024FF0000194E7C8
:1018A0002DE9804C9A46934670B491E8380007C8F9
:1018B00031EA400C48BF34EA430C03D5FFF7E6FD9C
:1018C000FFF780FFF0BCBDE8008C2DE9804C9A4604
:1018D000934670B491E8380007C810F0804F08BFF5
:1018E00013F0804F03D100F005F8FFF76BFFF0BC59
:1018F000BDE8008C20F07F4780EA030023F07F4C96
:1019000007EB0C03A3F57C5300F00040A3F1FE03AA
:1019100092F0000F00F0B38095F0000F00F0778098
:101920002DE901494FEA11404FEA144621EA0048E7
:1019300000FB06FC24EA064708FB06F607FB08F84E
:1019400000FB07F718EB06484CEB164C4FEA124B1E
:1019500018EB07484FEA15464CEB174022EA0B4EAE
:101960000BFB06FC25EA06470EFB06F607FB0EFE00
:101970000BFB07F71EEB064E4CEB164C4FF0000628
:101980001EEB074E4CEB174B18EB0B0840F1000019
:1019900018EB0E0B58EB000840F100008F1A4FF0C7
:1019A00000013CBFC943661B14BFB5EB040C00210A
:1019B0003CBFC943F61B4FEA17444EEA8E0E27EA96
:1019C00004454FEA1C4704FB07622CEA074C05FB61
:1019D00007F70CFB05F604FB0CFC16EB074642EB85
:1019E000174216EB0C4642EB1C421BEB060658EB6B
:1019F0000202414146EA9E0601D5BDE80189B619B9
:101A0000524141EB0101A3F10103BDE801894FEA15
:101A100014454FEA114724EA054621EA074C05FB25
:101A200007F406FB07F70CFB06F105FB0CFC11EBBA
:101A3000074144EB17444FEA124711EB0C4144EBCA
:101A40001C4422EA074C05FB07F206FB07F70CFBD8
:101A500006F605FB0CFC16EB074642EB174216EBAD
:101A60000C4642EB1C456A1854F1000148BF704710
:101A7000B619524141EB0101A3F10103704795F002
:101A8000000F37D04FEA11424FEA144721EA0246CD
:101A900024EA074C02FB07F106FB07F70CFB06F4F0
:101AA00002FB0CFC14EB074441EB17414FEA1547CE
:101AB00014EB0C4441EB1C4125EA074C02FB07F5F3
:101AC00006FB07F70CFB06F602FB0CFC16EB0746C1
:101AD00045EB174516EB0C4645EB1C42121951F12C
:101AE000000148BF7047B619524141EB0101A3F113
:101AF000010370474FEA14454FEA114724EA0546AF
:101B000021EA074C05FB07F106FB07F70CFB06F281
:101B10004FF0000605FB0CFC12EB074241EB1741AE
:101B200012EB0C4251EB1C4148BF7047921841EB3D
:101B30000101A3F1010370477047000070B505462D
:101B40000C462246294615480068801CFEF7C5FD54
:101B50002046E11704EB1161090A104A126811705E
:101B6000E11704EB11610912A4EB01210B4A126881
:101B70005170002109480268A01C115407480068F0
:101B800000F5967005490860084600680449096830
:101B9000884202D103480149086070BD3800002026
:101BA000400000202017002010B500F037F910BDCC
:101BB00000F0805111B10349086001E0024948601A
:101BC000704700000404024000000240014600206B
:101BD000002201F0805313B1054B1A6801E0054B58
:101BE0001A6802EA01030BB1012000E000207047EF
:101BF00000040240000002407047000001460D4A08
:101C000012884A434FF0E0235A6100229A61012270
:101C10001A6100BF4FF0E022106900F001021AB112
:101C200000F48032002AF5D000224FF0E0231A6140
:101C30009A6170470200002010B504466FF004005E
:101C400001F080FAE11704EB5171C1F3C701074AB3
:101C500011701046007800EB4001C1EBC0104FF648
:101C6000FF7101EAC0000249088010BD0000002099
:101C70000200002010B512A002F006FD012112485A
:101C800001F055FF15E01148007890B100200F4990
:101C900008700F490F48FEF7DDFC00F0E5F80D492C
:101CA0000DA002F0F1FC10A10A48FEF795FC00B16E
:101CB00000E0E8E700BF0021034801F038FF10BD55
:101CC000737373730000000000480040D2000020CE
:101CD00028200020880000200D0A677073206461AE
:101CE00074612025730D0A0024474E474C4C0000B8
:101CF0002DE9F041024600250026002000230024A3
:101D0000002791F803C00CF00F0591F803C00CF008
:101D1000100CBCF1000F03D091F802C04CEA05058D
:101D200091F800C0BCF1000F31D0146800202BE006
:101D30004FF0010C0CFA00F3B1F800C00CEA0306F6
:101D40009E4220D183004FF00F0C0CFA03F7BC43E6
:101D500005FA03FC4CEA040491F803C0BCF1280F17
:101D600006D14FF0010C0CFA00FCC2F814C00AE0D6
:101D700091F803C0BCF1480F05D14FF0010C0CFAEB
:101D800000FCC2F810C0401C0828D1D31460B1F880
:101D900000C0BCF1FF0F34DD546800202EE000F1DC
:101DA000080C4FF0010808FA0CF3B1F800C00CEA77
:101DB00003069E4221D183004FF00F0C0CFA03F76B
:101DC000BC4305FA03FC4CEA040491F803C0BCF1DF
:101DD000280F05D100F1080C08FA0CF8C2F814809D
:101DE00091F803C0BCF1480F07D100F1080C4FF087
:101DF000010808FA0CF8C2F81080401C0828CED35D
:101E00005460BDE8F0810AB1016100E041617047B2
:101E100010B54FF4165002F043F810BD10B50DA0E8
:101E200002F032FC4FF48060FFF7D0FE30B10120A9
:101E30000B4908708002FFF7BBFE0AE04FF4007008
:101E4000FFF7C4FE28B10120064908704002FFF7E1
:101E5000AFFE10BD68656C6C6F3939393900000010
:101E6000D4000020D300002070B5A2B001240025CA
:101E70003DA13F48FEF7B0FB002872D000BF1FE035
:101E8000611CC8B200F0D8FB0346204600F0D4FB2A
:101E9000181A401EC1B2601E20AA1154204600F03C
:101EA000CBFB401C32494618611E20AB5A5CC1EB8B
:101EB000011105ABC8183146FEF7CFFC601CC4B257
:101EC000072CDDDB0121601E20AA1154204600F002
:101ED000B3FB401C2649095C601EC0EB001005AA3C
:101EE000115400240DE0C4EB041105AA881800F079
:101EF000C5FB29466A1CD5B202AA42F82100A01CE3
:101F0000C4B2042CEFDD002501240AE0C4EB041068
:101F100005A90A5C2846691CCDB201A90A54A01C77
:101F2000C4B2052CF2DD9DF86E0001A948559DF85C
:101F30000400532803D1029880F0004002909DF8DD
:101F40000500572803D1039880F0004003900398C0
:101F500002F0CAFF074A03C2029802F0C5FF064A10
:101F600003C222B070BD000024474E474C4C000015
:101F700088000020780000208000002070470000CA
:101F800010B526A002F080FB80212A48FEF71CFC39
:101F900029A22CA12748FEF7ABF92648FEF77EFBC5
:101FA0002949086080212948FEF70EFC28A225A1B6
:101FB0002648FEF79DF92548FEF770FB2649086084
:101FC00080212648FEF700FC25A21EA12348FEF72B
:101FD0008FF92248FEF762FB2449086080212448DB
:101FE000FEF7F2FB23A217A12148FEF781F940F684
:101FF000C2302449086008461D49026822A002F048
:1020000043FB0C4926A002F03FFB104927A002F039
:102010003BFB124929A002F037FB10BD636F6D65D1
:1020200020696E746F206D71747420696E697469B3
:10203000616C0000FC1C002030303030303030301B
:102040003100000025730000440000207C1D0020AA
:1020500061646D696E00000048000020FC1D0020D6
:102060004242623831353431360000004C000020E5
:102070007C1E00203139322E3136382E34332E3149
:102080003234000050000020495020414E4420507E
:102090004F5254203A2025733A25640D0A0000005F
:1020A0004944203A25730D0A00000000555345525B
:1020B0004E414D45203A25730D0A000050415353BF
:1020C00057415244203A25730D0A000010B51648B6
:1020D0001649086008460068154908601548164901
:1020E00008601648164908600846006815490860E7
:1020F00015481649086016481649086008460068E1
:102100001549086015481649086000F037F80021A5
:1021100014A000F043FA0020154908701549087012
:102120001549087010BD0000680B00202000002039
:102130002400002018100020280000204411002056
:102140002C00002030000020F41500203400002076
:1021500020170020380000203C000020D01B002069
:102160004000002069206C696B65206D71747400FB
:1021700063000020620000206000002070B5012094
:102180007A4908600A207A4908607A480068001D88
:10219000794909680844801C7849096808447849E5
:1021A0000860734800680968441810207549087071
:1021B00000BF2046E11704EB5161C911A4EBC11522
:1021C000E11704EB5161CC11002C01DD45F08005D5
:1021D0006C48664A1268855464480068401C63492C
:1021E0000860002CE5DC0021664A60480068115454
:1021F00004215E480068401C11544D215B48006872
:10220000801C1154512159480068C01C115454219C
:1022100056480068001D115454480068401D115470
:10222000042152480068801D1154C2214F480068A3
:10223000C01D115400214D4800680830115464211C
:102240004A480068093011544A490868C11700EB30
:102250001161C1F307224B4B444909680A315A54B2
:1022600044490868C11700EB11610912A0EB012174
:10227000CAB23E4909680B315A541A463B490968AB
:102280000C3150183B490A683F49FEF726FA3A4993
:102290000868C11700EB1161C1F3072233490968CF
:1022A0000C31344B1B681944364B5A543249086878
:1022B000C11700EB11610912A0EB0121CAB22B4931
:1022C00009680D312B4B1B6819442E4B5A54274972
:1022D00009680E31274A126811441A46881826499F
:1022E0000A682A49FEF7F9F924490868C11700EB82
:1022F0001161C1F307221D4909680E311D4B1B688E
:1023000019441D4B1B6819441E4B5A541B4908683D
:10231000C11700EB11610912A0EB0121CAB21349E8
:1023200009680F31134B1B681944134B1B68194480
:10233000144B5A540D49096810310E4A1268114461
:102340000D4A126811441A4688180C490A68104947
:10235000FEF7C3F905480068054A12681044084AA8
:1023600012688118074801F033FB70BD540000204B
:102370005800002044000020480000204C000020AD
:102380005C000020FC1E0020FC1C00207C1D0020A6
:10239000FC1D00202DE9F04FD1B0804698F80110C7
:1023A00098F8000001EB0020509008F1020700208F
:1023B000814605460646834601244FF0010A00BFC8
:1023C0000BF1010B00BF281917F8009009F07F00EE
:1023D00000FB0A664FEACA1A641C09F08000002854
:1023E000F1D13019054431195098401A5090012408
:1023F000A246002650980028E2D1594620A002F0BB
:1024000043F900200546064600BF00BF4C9030E06F
:1024100000BF281917F8009009F07F0000FB0A663A
:102420004FEACA1A641C09F080000028F1D1601C30
:102430002844395C6019385C01EB0020801C4F9007
:102440004F98301A4E9029194F9808444D904D9846
:10245000391801A84E9AFEF740F901A84E99FFF7E6
:102460006DFB301905440124A24600264C98401CFF
:102470004C904C985845CBDB51B0BDE8F08F000034
:10248000524543565F4E554D4245523A25640D0A1A
:102490000000000010B5C0200449087000204870FA
:1024A0000221024801F094FA10BD0000FC1E002039
:1024B0002DE9F04705468846164601203349086055
:1024C0002846FEF7EBF8801C314908603148066069
:1024D000084600682F490968441830202E490870C2
:1024E00000BF2046E11704EB5161C911A4EBC117ED
:1024F000E11704EB5161CC11002C01DD47F080079E
:102500002548224A1268875420480068401C1F4909
:102510000860002CE5DC2846FEF7C0F8C0F3072170
:102520001D4A1A48006811542846FEF7B7F8C1B290
:10253000194A16480068401C11542846FEF7AEF8A8
:102540008146154A11490968891C50184A4629468E
:10255000FEF7C3F82846FEF7A1F80C490968891C64
:1025600008440D4900EB0109324641464846FEF752
:10257000B4F806480068064A12681044054A126812
:102580008118054801F024FABDE8F08754000020C6
:10259000580000205C000020FC1E002070B504469E
:1025A0000D4602201F4908601F4908602046FEF7BB
:1025B00075F8C01C1D49086082201D4908701A4822
:1025C00000781A4909780844194948700020887031
:1025D0000120C8702046FEF761F8000A144908710E
:1025E0002046FEF75BF8124948712046FEF756F880
:1025F0000646324621460E48801DFEF76EF82046FC
:10260000FEF74CF8801D0A490D5406480068064A3A
:1026100012681044054A12688118054801F0D8F97B
:1026200070BD000054000020580000205C00002015
:10263000FC1E0020704700000246002115E00E48F5
:10264000405C2A2807D00C48405C202803DB0A485D
:10265000405C7A2801DD002070470748405C2C2848
:1026600001D1501EC2B2481CC1B2002AE7D1481E97
:10267000C0B20146F0E70000880000202DE9F04FCD
:102680008DB006460025A9460027A846AA46002088
:102690000C90344616E02078392801DD012000E056
:1026A00000202178302901DA012100E000210843CF
:1026B00028B120782E2801D17DB200E003E0641C0F
:1026C000781CC7B2E7E700BF681C00F0FF09681E6E
:1026D00045B234460AE029460A2001F0CDFF2178B0
:1026E000303901FB0088681E45B2641C002DF2DA07
:1026F000012530E0641C29460A2001F0BDFF834615
:1027000002F09CFA00222C4BCDE9000102F03EF9C8
:10271000CDE904012178A1F1300002F08FFACDE972
:102720000201DDE9042302F031F9CDE90801504648
:1027300002F0DAFBCDE90601DDE9082302F07EF8BC
:10274000CDE90A0102F048F88246681C45B209F159
:10275000010000F0FF09B945CCDB642098FBF0F1E3
:1027600000FB1180029002F04DFC5146039002F0F4
:10277000E7FB834602F0B8FB0022104BCDE90401D1
:1027800002F004F9CDE90801642098FBF0F005900F
:1027900002F038FC834602F0A7FBCDE90601DDE933
:1027A000082302F04BF8CDE90A0102F015F80C906D
:1027B0000C980DB0BDE8F08F0000F03F00004E40D7
:1027C0007047000070B5002100230F22C47804B3C5
:1027D000154C246804F4E064C4F5E064210AC1F1F6
:1027E0000403CA40447804FA03F184781440214376
:1027F00009010E4C0678A155047804F01F05012448
:10280000AC4005786D11AD0005F1E025C5F800413B
:1028100009E0047804F01F050124AC40044D06785B
:10282000761145F8264070BD0CED00E000E400E0B4
:1028300080E100E002490143024A11607047000054
:102840000000FA050CED00E010B5AC480078012856
:1028500070D1AB480068AB490968884236D0A848B7
:102860000068807810280CD0A548006880788228FD
:1028700003D1A5480078012803D0A4480078012896
:1028800024D19F4800688078102806D19C480068B1
:1028900081789FA001F0F8FE05E0994800688178F2
:1028A000A5A001F0F1FE9648006801F01BFF9448D6
:1028B000006800F596709249086008460068A349D0
:1028C0000968884202D1A2488D490860A148006881
:1028D000A1490968884279D0A0A001F0D5FE9D48A1
:1028E0000068807820283CD19A4800684079062802
:1028F0002FD2DFE800F0030A111820279AA001F078
:10290000C3FE0120804908702AE09AA001F0BCFEB5
:1029100000207A49087023E09EA001F0B5FE002057
:10292000764908701CE0A2A001F0AEFE00207349B9
:10293000087015E0BBE0A6A001F0A6FE00206F49DC
:1029400008700DE0AEA001F09FFE00206B490870FA
:1029500006E0B3A001F098FE00206849087000BFAF
:102960004BE07C480068807890281FD17948006847
:10297000807910B1012811D100E000BFB0A001F0B2
:1029800083FE0120614908700020B149087000F001
:10299000B7FD00F085FA00F01BFC06E0ADA001F0E9
:1029A00073FE00205549087000BF26E069480068A2
:1029B0008078D02815D1ACA001F066FEA44800783C
:1029C000012804D10020A249087016E024E0A048A4
:1029D0000078012811DD00209D49087000F090FD6D
:1029E0000BE05C4800688078302806D1A2A001F096
:1029F0004BFE58480068FFF7CDFC5648006800F5CC
:102A000096705449086008460068A04909688842E1
:102A100002D19F484F4908609E4800689E49096856
:102A200088426AD09B480168891C9CA001F02CFE5A
:102A30009E480068FDF732FE044622469B48016826
:102A400094480068801CFDF7D9FD30B998A09949D9
:102A5000086099A001F018FE17E09B480068FDF798
:102A60001DFE04462246984801688A480068801C7A
:102A7000FDF7C4FD30B995A08E49086094A001F01F
:102A800003FE02E096A001F0FFFD8248006800F519
:102A9000967080490860084600689649096888422F
:102AA00002D195487B49086000F0FAF925E093A02F
:102AB00001F0EAFD0021984800F01BFE0021974834
:102AC00000F017FE0020964908604FF48061954899
:102AD000FDF77AFE01F03EFA78B993A001F0D4FD3B
:102AE00001200649087000208D4908604FF480617C
:102AF0008C48FDF769FEFFF7E9FA10BD6100002080
:102B0000300000202C000020620000206300002024
:102B1000B7A2CBCDCAFDBEDD3A30782578A3ACB5DF
:102B2000A5C6ACBBFACAFDBEDDCDC6CBCDD6C1B7FE
:102B3000FECEF1C6F70D0A0053454E445F444154A2
:102B4000413A307825780D0A00000000340000205A
:102B5000441100202400002020000020524543564C
:102B60005F444154413A0000434F4E4E4543540D9B
:102B70000A000000434F4E4E454354204641494C05
:102B800020204552524F5220564953494F4E0D0A6C
:102B900000000000434F4E4E454354204641494CEF
:102BA00020204552524F522049440D0A0D0A000080
:102BB000434F4E4E454354204641494C20204552F8
:102BC000524F5220535252564943450D0A000000BD
:102BD000434F4E4E454354204641494C20204552D8
:102BE000524F5220555345524E414D45204F522091
:102BF00050415353574152440D0A0D0A0000000042
:102C0000434F4E4E454354204641494C20204552A7
:102C1000524F522057415252414E54590D0A000012
:102C2000434F4E4E454354204641494C2020524587
:102C300054525920434F4E4E4554430D0A00000054
:102C400053554220535543434553530D0A0000004A
:102C500060000020535542204641494C20205245F7
:102C60005452590D0A00000050494E472052454326
:102C70005620200D0A000000534552564943452076
:102C8000302050554C495348200D0A0028000020A0
:102C9000680B00203C00002038000020434F4D4DC1
:102CA000414E443A25730D0A0000000068000020E0
:102CB000310000007000002057494E444F57204F0C
:102CC00050454E0D0A0000006C000020300000004E
:102CD00057494E444F5720434C4F53450D0A00006F
:102CE000756E6B6E6F7720434F4D4D414E440D0A0C
:102CF00000000000400000202017002052455452E0
:102D00005920544F20434F4E4E4554432053455273
:102D100056494345200D0A000008004000040040C9
:102D200008000020D8010020535543434553534623
:102D3000554C20434F4E4E455443205443500D0AAA
:102D4000000000007047000029B1064AD269024322
:102D5000044BDA6104E0034AD2698243014BDA6131
:102D6000704700000010024029B1064A1269024370
:102D7000044B1A6104E0034A12698243014B1A6151
:102D8000704700000010024029B1064A92690243D0
:102D9000044B9A6104E0034A92698243014B9A61B1
:102DA000704700000010024029B1064AD268024371
:102DB000044BDA6004E0034AD2688243014BDA60D4
:102DC000704700000010024030B5002100220024AE
:102DD00000232D4D6D6805F00C0121B1042905D0AB
:102DE000082923D105E0294D056022E0274D056023
:102DF0001FE0254D6D6805F47012234D6D6805F4D4
:102E00008034022505EB92421CB9214D55430560E3
:102E10000BE01D4D6D6805F400351DB11C4D55438B
:102E2000056002E0194D5543056002E0174D05604D
:102E300000BF00BF144D6D6805F0F0010909154D84
:102E40006B5C0568DD4045600F4D6D6805F4E06121
:102E5000090A104D6B5C4568DD4085600A4D6D6860
:102E600005F46051C90A0B4D6B5C4568DD40C560D7
:102E7000054D6D6805F44041890B074D6B5CC568D5
:102E8000B5FBF3F5056130BD0010024000127A0079
:102E900000093D000C0000201C00002070470000CD
:102EA00070B5ADF5107D342182A8FDF7AFFC64212B
:102EB00069A8FDF7ABFC00208F9034215BA8FDF7DB
:102EC000A5FC642142A8FDF7A1FC002068906421C4
:102ED00028A8FDF79BFC982102A8FDF797FC00208D
:102EE0004190454845A1026882A8FDF701FA424891
:102EF00048A102685BA8FDF7FBF93F484BA10268B7
:102F000028A8FDF7F5F903208DF83C0200208DF884
:102F10003D0282A8FDF7C2FBC0B28DF83E0282A935
:102F20009DF83E02CDE900019DF83D329DF83C221E
:102F300043A169A8FDF7DCF903208DF8A00100206A
:102F40008DF8A1015BA8FDF7A9FBC0B28DF8A20125
:102F50005BA99DF8A201CDE900019DF8A1319DF882
:102F6000A02137A142A8FDF7C3F903208DF8040181
:102F700000208DF8050128A8FDF790FBC0B28DF860
:102F8000060128A99DF80601CDE900019DF805314B
:102F90009DF804212AA102A8FDF7AAF982A8FDF74D
:102FA0007DFBC41C0DF2A71128A001F06DFB5BA8EE
:102FB000FDF774FBC51C0DF20B1124A001F064FB9E
:102FC00028A8FDF76BFBC61C0DF10B011FA001F03B
:102FD0005BFB224669A920A0FFF76AFA2A4642A9AC
:102FE0001DA0FFF765FA324602A91BA0FFF760FAA1
:102FF0000DF5107D70BD0000700000207B226C6517
:1030000064466C61675F6D7137223A222573227DB9
:10301000000000007B226C6564466C61675F6C6930
:10302000676874223A222573227D00007B226C653A
:1030300064466C6167223A222573227D00000000FD
:10304000256325632563257300000000616C6C3ADD
:103050002025730D0A0000002464700010B500F0F4
:1030600001F810BD0CB500200190009033480068B5
:1030700040F480303149086000BF3048006800F4F7
:10308000003000900198401C0190009818B90198F8
:10309000B0F5A06FF1D12948006800F4003010B1FC
:1030A0000120009001E0002000900098012843D109
:1030B0002348006840F01000214908600846006875
:1030C00020F0030008600846006840F00200086035
:1030D0001A484068194948600846406848600846F0
:1030E000406840F4806048600846406820F47C10E6
:1030F00048600846406840F4E810486008460068A8
:1031000040F08070086000BF0C48006800F000705C
:103110000028F9D00948406820F0030007494860BA
:103120000846406840F00200486000BF034840681D
:1031300000F00C000828F9D10CBD0000001002407E
:1031400000200240042808D14FF0E021096941F035
:1031500004014FF0E022116107E04FF0E02109691E
:1031600021F004014FF0E022116170477047000028
:1031700010B51348006840F0010011490860084686
:103180004068104908400E494860084600680E49EA
:1031900008400B4908600846006820F48020086059
:1031A0000846406820F4FE0048604FF41F00886025
:1031B000FFF754FF4FF000600449086010BD0000A5
:1031C000001002400000FFF8FFFFF6FE08ED00E0EF
:1031D0001FB54FF4A060FFF72DFB01210846FFF754
:1031E000B3FD4FF0804000F091FA4EF65F20ADF84D
:1031F000080048F69F40ADF804000020ADF8060036
:10320000ADF80A0001A94FF0804000F08FFB0121CA
:10321000880700F06BFA01221146900700F07BFB53
:103220000121880700F065FA1C208DF800000220BB
:103230008DF8010001208DF802008DF8030068462A
:10324000FFF7C0FA1FBD000070B5ADF5107D00247A
:10325000002500260121880700F04CFB00287CD0C7
:103260004FF03332624B63A16448FDF741F84FF0F1
:103270003332634B5FA16348FDF73AF8FEF7FAFC7F
:10328000342180A8FDF7C2FA342173A8FDF7BEFAF5
:1032900064215AA8FDF7BAFA322141A8FDF7B6FA1F
:1032A000642128A8FDF7B2FA982102A8FDF7AEFA2A
:1032B00000208F908E908D90504A53A180A8FDF7EA
:1032C00017F8504A56A173A8FDF712F85A4803C8D8
:1032D000CDE9000159485AA10CC85AA8FDF708F8D1
:1032E00003208DF83C0200208DF83D0280A8FDF7F8
:1032F000D5F9C0B28DF83E0203208DF838020020C7
:103300008DF8390273A8FDF7C9F9C0B28DF83A02F9
:1033100003208DF8340200208DF835025AA8FDF7FD
:10332000BDF9C0B28DF8360280A99DF83E02CDE904
:1033300000019DF83D329DF83C224CA141A8FCF7CC
:10334000D7FF4DA001F0A0F90DF207114BA001F03D
:103350009BF973A99DF83A0200E045E0CDE9000130
:103360009DF839329DF8382240A128A8FCF7C0FF0B
:1033700041A001F089F90DF1A30140A001F084F909
:103380005AA99DF83602CDE900019DF835329DF825
:10339000342236A102A8FCF7ABFF37A001F074F984
:1033A0000DF10B0135A001F06FF980A8FDF776F95A
:1033B000C41C224641A933A0FFF77AF873A8FDF791
:1033C0006DF9C51C2A4628A92EA0FFF771F85AA846
:1033D000FDF764F9C61C324602A92AA0FFF768F877
:1033E0000121880700F082F90DF5107D70BD000005
:1033F00033333640252E326600000000A00A00203C
:1034000033335640D80900207B22766F6C74616795
:10341000655F6D7137223A222573227D000000001E
:103420007B22766F6C746167655F6C696768742274
:103430003A222573227D00008000002078000020C1
:103440007B226C6F6E67746974756465223A2225FD
:103450002E366C66222C226C617469747564652248
:103460003A22252E366C66227D00000025632563F6
:1034700025632573000000000D0A000025730D0A66
:1034800000000000246470001FB54FF4A060FFF737
:10349000D1F901210220FFF757FC184800F036F956
:1034A00044F61F60ADF8080041F61F40ADF8040077
:1034B0000020ADF80600ADF80A0001A90F4800F0A1
:1034C00035FA01210D4800F011F9012211460B488F
:1034D00000F021FA0121094800F00BF91D208DF8B8
:1034E000000001208DF8010000208DF8020001206D
:1034F0008DF803006846FFF765F91FBD0004004022
:103500001FB54FF4A060FFF795F901210220FFF7E6
:103510001BFC184800F0FAF84EF65F20ADF80800E2
:1035200048F69F40ADF804000020ADF80600ADF865
:103530000A0001A90F4800F0F9F901210D4800F037
:10354000D5F8012211460B4800F0E5F901210948A0
:1035500000F0CFF81D208DF8000002208DF801004A
:1035600001208DF802008DF803006846FFF72AF964
:103570001FBD00000004004010B50121164800F0F6
:10358000B9F938B315480078062819D2DFE800F0F9
:1035900003060B0C0D10FEF77DFF11E0FFF774FF23
:1035A000FEF778FF0CE000BF00BFFEF773FF07E0F7
:1035B00000200B4908700021074800F09AF800BF6E
:1035C00000BF06480078401C0449087001210248E9
:1035D00000F08CF810BD00000004004060000020E6
:1035E0006100002010B501211D4800F083F900287A
:1035F00034D01C481C4902681C480068801CFDF738
:103600006CF818480088000A1849096808701548BD
:1036100000781649096848701448006800F59670EB
:10362000124908600846006811490968884202D1B9
:1036300010480E49086000200A49086000210E4821
:1036400000F072F90021064800F053F80021044808
:1036500000F06AF90121024800F048F810BD0000AE
:103660000008004008000020D801002020000020B1
:1036700028000020680B0020000400407FB50546AC
:103680000C464FF4A060FFF7D5F801210420FFF7A6
:103690005BFBADF80850ADF804400020ADF8060023
:1036A000ADF80A0001A9104800F040F901210E48C8
:1036B00000F01CF8012211460B4800F02CF9002103
:1036C000094800F016F81E208DF8000001208DF842
:1036D000010000208DF8020001208DF803006846EB
:1036E000FFF770F87FBD000000080040CA43028267
:1036F000704721B1028842F00102028004E0028892
:103700004FF6FE731A4002807047000010B5044661
:103710006848844208D10121C014FFF745FB00210D
:10372000E014FFF741FBC4E0B4F1804F08D1012160
:103730000846FFF719FB00210120FFF715FBB8E051
:103740005D48844208D101210220FFF70DFB0021D2
:103750000220FFF709FBACE05848844208D1012160
:103760000420FFF701FB00210420FFF7FDFAA0E091
:103770005348844208D101210820FFF7F5FA0021BF
:103780000820FFF7F1FA94E04E48844208D1012165
:103790001020FFF7E9FA00211020FFF7E5FA88E092
:1037A0004948844208D101212020FFF7DDFA002199
:1037B0002020FFF7D9FA7CE04448844208D1012157
:1037C0004014FFF7F1FA00216014FFF7EDFA70E002
:1037D0003F48844209D10121C804FFF7E5FA0021DE
:1037E0004FF40020FFF7E0FA63E03A48844209D141
:1037F00001210805FFF7D8FA00214FF48010FFF7E8
:10380000D3FA56E03448844209D101214805FFF734
:10381000CBFA00214FF40010FFF7C6FA49E02F4819
:10382000844208D101214020FFF79EFA0021402068
:10383000FFF79AFA3DE02A48844208D1012180200E
:10384000FFF792FA00218020FFF78EFA31E0254839
:10385000844208D101218015FFF786FA0021A015C6
:10386000FFF782FA25E02048844209D101210804AB
:10387000FFF79AFA00214FF48030FFF795FA18E02D
:103880001A48844209D101214804FFF78DFA00212A
:103890004FF40030FFF788FA0BE01548844208D156
:1038A00001218804FFF780FA00214FF48020FFF700
:1038B0007BFA10BD002C01400004004000080040CD
:1038C000000C004000100040001400400034014093
:1038D000004C0140005001400054014000180040DD
:1038E000001C004000200040004001400044014016
:1038F0000048014030B50246002000230024158A0C
:1039000005EA0103958905EA010413B10CB1012010
:1039100000E0002030BD1AB183890B43838102E0AF
:1039200083898B438381704781847047002202889A
:103930001D4B98420ED01D4B98420BD0B0F1804FDA
:1039400008D01B4B984205D01A4B984202D01A4B14
:10395000984204D14FF68F731A404B881A43174B85
:10396000984207D0164B984204D04FF6FF431A40B6
:10397000CB881A4302808B8883850B8803850A4B8A
:1039800098420BD0094B984208D00E4B984205D074
:103990000D4B984202D00D4B984201D10B7A038611
:1039A0000123838270470000002C01400034014055
:1039B0000004004000080040000C004000100040DF
:1039C0000014004000400140004401400048014014
:1039D00070B505460C462246294613480068801CEF
:1039E000FCF77BFE2046E11704EB1161090A0E4A41
:1039F00012681170E11704EB11610912A4EB0121A7
:103A0000094A126851700848006800F59670064926
:103A100008600846006805490968884202D10448E0
:103A20000149086070BD00002C0000203400002017
:103A30004411002010B540F22551184800F0D2F88A
:103A400058B31748007880B91448001D008820B387
:103A50001248001D00881349134A126888541248FE
:103A60000068401C1049086017E00C48001D0088E1
:103A70000C490D4A126888540B48006820B901218E
:103A80000A48FFF736FE03E000210848FFF74CFF25
:103A900005480068401C0449086010BD004400400F
:103AA00061000020D801002008000020000800402C
:103AB00010B540F22551154800F094F820B3134892
:103AC00000F04CF9C4B2242C02D100201049087037
:103AD0000F4801780078401C0D4A10700D4844547E
:103AE0000078242810D10B4880784E280CD1094842
:103AF00000794C2808D1074840794C2804D10A2C79
:103B000002D101200449087010BD000000480040A7
:103B1000D100002028200020D200002001F40072F3
:103B2000B2F5007F00D100BFCA430280704721B1C7
:103B3000828942F40052828104E082894DF6FF734B
:103B40001A4082817047000010B504462048844224
:103B500009D101218803FFF727F900214FF48040A4
:103B6000FFF722F932E01B48844209D101214804C1
:103B7000FFF7FAF800214FF40030FFF7F5F825E0E1
:103B80001548844209D101218804FFF7EDF800218E
:103B90004FF48020FFF7E8F818E01048844209D17C
:103BA0000121C804FFF7E0F800214FF40020FFF7DF
:103BB000DBF80BE00A48844208D101210805FFF731
:103BC000D3F800214FF48010FFF7CEF810BD0000AD
:103BD000003801400044004000480040004C0040D4
:103BE0000050004070B5024600240023002500204C
:103BF00040F66A16B14200D100BFC1F3421501F090
:103C00001F03012606FA03F3012D02D196893340E2
:103C100006E0022D02D1168A334001E0968A334035
:103C20000C12012606FA04F41688344013B10CB1C4
:103C3000012000E0002070BDF0B5034600240026FE
:103C40000025002040F66A17B94200D100BF18468F
:103C5000C1F3421401F01F06012707FA06F5012CF3
:103C600001D10C3004E0022C01D1103000E01430FE
:103C70001AB107682F43076002E00768AF43076087
:103C8000F0BD00002DE9F04786B005460E46002441
:103C9000A24600BFA1460027B08900B100BF2F4651
:103CA0002C8A4CF6FF700440F08804432C82AC89C7
:103CB0004EF6F3100440B0883189084371890843F7
:103CC0000443AC81AC8A4FF6FF400440B089044302
:103CD000AC8201A8FFF778F81F48874202D1DDF8CF
:103CE00010A001E0DDF80CA0A88900F4004040B16C
:103CF0000AEBCA0000EB0A1031684900B0FBF1F88A
:103D000007E00AEBCA0000EB0A1031688900B0FB3B
:103D1000F1F86420B8FBF0F004012009642101FBF4
:103D20001089A88900F4004040B1322000EBC9009E
:103D3000B0FBF1F000F00700044308E0322000EB94
:103D400009106421B0FBF1F000F00F0004432C8156
:103D500006B0BDE8F08700000038014001468888C1
:103D6000C0F308007047704710B586B004460121C3
:103D70008803FFF709F801210420FFF705F84FF445
:103D80000070ADF8140003208DF8160018208DF88F
:103D9000170005A91248FDF7ABFF4FF48060ADF89E
:103DA000140004208DF8170005A90D48FDF7A0FFA9
:103DB00001940020ADF80800ADF80A00ADF80C0041
:103DC000ADF810000820ADF80E0001A90548FFF776
:103DD00059FF01210348FFF7AAFE06B010BD0000FD
:103DE000000801400038014010B586B004464FF489
:103DF000A060FEF71FFD01214804FEF7A5FF012189
:103E00000420FEF7C1FF2448FFF79EFE0420ADF812
:103E1000140003208DF8160018208DF8170005A94E
:103E20001E48FDF765FF0820ADF8140004208DF84A
:103E3000170005A91948FDF75BFF01940020ADF8B4
:103E40000800ADF80A00ADF80C00ADF810000C2029
:103E5000ADF80E0001A91048FFF714FF20210E480D
:103E6000FFF75CFE012240F225510B48FFF7E4FE0C
:103E700026208DF8000000208DF801008DF802004A
:103E800001208DF803006846FEF79CFC01210248E2
:103E9000FFF74DFE06B010BD004400400008014091
:103EA00010B586B004464FF4A060FEF7C3FC0121B4
:103EB0008804FEF749FF01210820FEF765FF23482B
:103EC000FFF742FE4FF48060ADF8140003208DF838
:103ED000160018208DF8170005A91D48FDF708FFEA
:103EE0004FF40060ADF8140004208DF8170005A908
:103EF0001748FDF7FDFE01940020ADF80800ADF86D
:103F00000A00ADF80C00ADF810000C20ADF80E0062
:103F100001A90E48FFF7B6FE20210C48FFF7FEFD71
:103F2000012240F225510948FFF786FE27208DF82F
:103F3000000000208DF801008DF8020001208DF8AE
:103F400003006846FEF73EFC06B010BD0048004086
:103F5000000C014010B539A000F096FB322000F0B3
:103F6000B9FA20B139A000F08FFB012010BD3DA0AF
:103F700000F08AFB40A000F087FB322143A000F054
:103F800009FB20B144A000F07FFB0220EEE748A02F
:103F900000F07AFB4C48007800281ED14BA000F0BE
:103FA00073FB32214FA000F0F5FA20B151A000F0D0
:103FB0006BFB0320DAE759A000F066FB5FA000F07E
:103FC00063FB1E2000F034FA20B162A000F05CFB1D
:103FD0000420CBE767A000F057FB6DA000F054FB76
:103FE000322172A000F0D6FA20B174A000F04CFB90
:103FF0000820BBE77AA000F047FB81A000F044FB5B
:10400000322189A000F0C6FA20B18AA000F03CFB62
:104010000920ABE792A000F037FB9BA000F034FB37
:10402000642000F059F920B19EA000F02DFB0A2079
:104030009CE7A4A000F028FB002097E752454144EC
:10404000592052454255494C440D0A0052454255AB
:10405000494C44204641494C205245535441525406
:104060000D0A000052454255494C442053554343E4
:104070004553530D0A000000524541445920534511
:10408000542053544120200D0A00000041542B437A
:10409000574D4F44453D3100534554205354412022
:1040A0004641494C2C20524553544152540D0A006C
:1040B00053454E2053544120535543434553534693
:1040C000554C0D0A000000006400002043414E439F
:1040D00041454C204155544F20434F4E4E4543548B
:1040E0000D0A000041542B43574155544F434F4E46
:1040F0004E3D300043414E43454C204155544F20E6
:10410000434F4E4E454354204641494C202C2052AB
:104110004553544152540D0A0000000043414E43A0
:1041200041454C204155544F20434F4E4E4543543A
:1041300020535543434553530D0A00005452592010
:10414000544F20434F4E4E45435420524F555445F3
:10415000520D0A00434F4E4E45435420524F555482
:104160004552204641494C202C524553544152540B
:104170000D0A0000434F4E4E45435420524F5554B4
:10418000455220535543434553530D0A0000000048
:104190005245414459205345542054435020434FE5
:1041A0004E4E454354494F4E0D0A000041542B4397
:1041B00049504D4F44453D310000000053454E20CD
:1041C00054435020434F4E4E454354494F4E204692
:1041D00041494C2C524553544152540D0A000000A1
:1041E0005345542054435020434F4E4E4543544969
:1041F0004F4E20535543434553530D0A00000000D2
:10420000524541445920544F20434F4C534520447C
:104210004946464552454E5420434F4E4E45435421
:10422000494F4E200D0A000041542B4349504D5533
:10423000583D3000434F4C53452044494646455273
:10424000454E5420434F4E4E454354494F4E204611
:1042500041494C202C20524553544152540D0A00E0
:10426000434F4C534520444946464552454E542001
:10427000434F4E4E454354494F4E205355434345BB
:1042800053530D0A00000000524541445920434F4A
:104290004E4E454354494F4E205345525645520DBC
:1042A0000A000000524541445920434F4E4E4543B9
:1042B00054494F4E205345525645522C20464149B1
:1042C0004C0D0A00434F4E4E454354494F4E205328
:1042D00045525645520D0A0010B5044600202E499D
:1042E00008604FF480612D48FCF76EFA2C482D4988
:1042F00002682DA000F016FA1AE06420FDF77EFC9B
:1043000030A12648FCF768F900B115E02FA1234839
:10431000FCF762F908B1012010BD2EA11F48FCF77F
:104320005BF908B10220F7E721462FA000F0ACF9B5
:10433000201EA4F10104E0D100BF2CA000F0A4F9DC
:10434000002C01DC0320E7E729A000F09DF9002004
:10435000114908604FF480611048FCF735FA2DA030
:1043600000F0E0F90CE06420FDF748FC2DA10B48BB
:10437000FCF732F900B107E021461BA000F084F9F8
:10438000201EA4F10104EED100BF002C01DC0420AA
:10439000C2E70020C0E7000008000020D80100208C
:1043A000500000207C1E002041542B4349505354A0
:1043B0004152543D22544350222C222573222C2555
:1043C000640D0A00434F4E4E45435400434C4F5337
:1043D00045440000414C524541445920434F4E4E04
:1043E0004543544544000000256420000D0A0000A8
:1043F000636F6E6E65637420737563636573736654
:10440000756C2C207475726E20696E746F20544325
:10441000500D0A0041542B43495053454E440D0A58
:10442000000000000D0A4F4B0D0A0D0A3E0000006F
:1044300010B504460020164908604FF48061154805
:10444000FCF7C2F914A217A118A000F06BF90DE057
:104450004FF47A70FDF7D2FB1AA10E48FCF7BCF8B6
:1044600000B107E0214618A000F00EF9201EA4F1CB
:104470000104EDD100BF074914A000F005F914A014
:1044800000F002F9002C01DC012010BD0020FCE747
:1044900008000020D8010020313233343536373857
:1044A00000000000737461720000000041542B434F
:1044B000574A41503D222573222C222573220D0A92
:1044C000000000004F4B0000256420000D0A2573FA
:1044D0000D0A000010B5044617A000F0D5F8002220
:1044E00002211748FDF78FFC4FF4FA70FDF786FBA9
:1044F000012202211248FDF786FC0FE011A000F016
:10450000C3F86420FDF77AFB10A11248FCF764F8A9
:1045100000B107E0214610A000F0B6F8201EA4F17B
:104520000104EBD100BF0DA000F0AEF8002C01DCBF
:10453000012010BD0020FCE76869686900000000E8
:10454000000C0140686968693100000072656164AF
:1045500079000000D8010020256420000D0A000029
:1045600008B501210820FEF70FFC0220ADF800007D
:1045700003208DF8020010208DF8030069460448DE
:10458000FDF7B6FB012202210148FDF73CFC08BD06
:10459000000C014070B505460C4600201349086028
:1045A0004FF480611248FCF70FF9294611A000F082
:1045B000B9F80CE06420FDF721FB10A10C48FCF7D2
:1045C0000BF800B107E021460DA000F05DF8201EB9
:1045D000A4F10104EED100BF0AA000F055F8002CB0
:1045E00001DC012070BD0020FCE700000800002075
:1045F000D801002025730D0A000000004F4B000079
:10460000256420000D0A0000490050EAC12018BFAF
:1046100004204A0D18BF40F0010040F2FF72B2EBD7
:10462000515F08BF40F00200012808BF0520704715
:1046300030380A2801D2012070470020704700BF9F
:1046400070474820FDF7F8FA4FF41650FFF78CFB3F
:104650004FF4E130FFF7C8FB4FF4E1514FF4FA702B
:10466000FFF70CF8FDF7D4FBFFF77AFFFDF788FCA6
:1046700001E0FEF7E9F8FCE70246012001E05043C3
:10468000491E0029FBD170470FB438B505A800902A
:104690001248009A0499FBF719FE002000900F4879
:1046A000FBF7FCFF054600BF0D48008800F0400006
:1046B0000028F9D000240CE00848005D0849091DD5
:1046C000088000BF0648008800F040000028F9D0AC
:1046D000641CAC42F0D338BC5DF814FBD800002059
:1046E0000038014000BF0E4A128802F04002002A42
:1046F000F9D001210CE04A1C825C094B1B1D1A8079
:1047000000BF074A128802F04002002AF9D0491C73
:104710004378027803EB02228A42ECDA7047000009
:10472000004400400FB438B505A800901248009A24
:104730000499FBF7CBFD002000900F48FBF7AEFF7C
:10474000054600BF0D48008800F040000028F9D061
:1047500000240CE00848005D0849091D088000BFDE
:104760000648008800F040000028F9D0641CAC42E4
:10477000F0D338BC5DF814FBD8050020004400409D
:1047800010B500290AD00878002807D005487844D9
:10479000FCF79CFD002801D0002010BD02487844A1
:1047A00010BD0000360B00002E0B000010B50029D4
:1047B0000AD00878002807D005487844FCF786FD21
:1047C000002801D0002010BD0248784410BD000030
:1047D0001A0C0000120C000021F00042A2F16052FD
:1047E000B2F5801F01F0004328BFD2F17F6C0BD9D6
:1047F0005FEA001C43EAC20242EB507018BF7047E8
:1048000028BF20F001007047B2F5801FBCBF1846DA
:1048100070474FEA410C1CF5001F02D2084600F019
:104820004FBC70B500F021FA00000089FFF7F6BF19
:104830004FF00040A0F580007047000010B591EAED
:10484000030F48BF83F0004300F16C82841A71EBC0
:10485000030C05D2121943EB0C03001B61EB0C0196
:10486000DFF824E14FEA1154A4EB135C1EEA430F76
:1048700018BF9EEA445F73D023EA0E03DCF1200EDA
:1048800021EA045143F4801332D322FA0CFE10EBD8
:104890000E0023FA0CFE41EB0E01CCF1200E03FAC0
:1048A0000EFE10EB0E0051F10001B1F5801FCCF1AE
:1048B000200E32D201EB045112FA0EF2BDE8104084
:1048C00058BF7047401C38BF5FEA420218BF7047AC
:1048D000002814BF20F0010041F100014FEA41031C
:1048E00013F5001F38BF7047A1F1C04100F00BBAAB
:1048F000012A43EB0302ACF1200CDCF11F0E32BFA6
:104900004FF0000E23FA0CF310EB030041EB0451BF
:10491000B4EB115FD0D0A1EB045101F5801149082F
:104920005FEA300001EB04510ED350F1000038BFB4
:1049300012FA0EFE08D1BDE81040C9E7401C38BF8E
:104940005FEA4202CAD1C3E7BDE810404FEA410323
:1049500013F5001F38BF7047A1F1C04100F0D3B973
:104960009EEA445F08D011EA5E0FBDE8104004BF24
:1049700001F0004100207047BDE8104070B500F024
:1049800074F900BF64FBBE3E0000E0FF2DE9C041AA
:1049900030B4DFF8A0C23CEA111418BF3CEA13148B
:1049A00000F0EC8081EA03051CEA111444EAD57496
:1049B00018BF1CEA131500F0C780A4EB05044FF0E4
:1049C000004545EAC12145EAC32341EA505143EA83
:1049D000525304F17F74994204F500344FEAC02029
:1049E0004FEAC22208BF904200F09C804FEA136554
:1049F0000FF24016765D4FEA134506FB05F7C7F147
:104A0000807706FB07F74FEAD737A7FB03687642A4
:104A1000C8F58038A7FB06CE38BFA8F1010807FB10
:104A200008E64FF0000EA6FB028CE6FB03CEDCF19D
:104A3000000CCEF1004E38BFAEF1010EA6FB0C58B3
:104A40004FF000074FF00005E6FB0E87A1FB08C6FC
:104A5000A0FB07CE16EB0E0645F10005E1FB07654E
:104A600015F1E04E7EBFA4F580345FEA46066D4145
:104A700016F1800745F100054FEA17274FEA066651
:104A800047EA0567A6F1DE46B6F1805F4FEA1525D5
:104A90001FD9384624F0010C05EBC471BCF1FE6F40
:104AA00001EB0C1102D8F0BCBDE8008124425CBFD0
:104AB00001F5801E9EEAC47F02D4F0BCBDE80081EF
:104AC000244238D4F0BCA1F1C041BDE8004100F05F
:104AD0001AB94FEAD22242EA43524FEAD323A7FB44
:104AE00002864FEAD02040EA415007FB03661EEAE7
:104AF0000E0F4FEAD12105FB026658BFA6EB005608
:104B0000B6EB00564FEA520E4EEAC37E18EB0E0E7D
:104B100056EB530EBDD518EB02085E417F1C55F1D4
:104B20000005B6E74FF480154FF000074FF0000680
:104B30004FF00008ADE7F0BC4FF0000001F1C041BC
:104B400001F00041BDE8008111EA0C1F0CEA1315C9
:104B500000D00CE013EA0C1F00F025804FF000009D
:104B6000F0BC81EA030101F00041BDE80081F0BC26
:104B7000BDE8004181EA030100F0C5B8F0BCBDE822
:104B8000004170B500F071F8097EFC3E00F007B8F6
:104B900081EA03014FF0000001F00041704781EA13
:104BA000030100F0B0B8F0BCBDE800414FF00000D8
:104BB00021497047FFFDFBF9F7F5F4F2F0EEEDEB5C
:104BC000E9E8E6E4E3E1E0DEDDDBDAD8D7D5D4D30B
:104BD000D1D0CFCDCCCBCAC8C7C6C5C4C2C1C0BF57
:104BE000BEBDBCBBBAB9B8B7B6B5B4B3B2B1B0AF5D
:104BF000AEADACABAAA9A8A8A7A6A5A4A3A3A2A141
:104C0000A09F9F9E9D9C9C9B9A99999897979695FB
:104C100095949393929191908F8F8E8E8D8C8C8B97
:104C20008B8A89898888878786858584848383821F
:104C3000828181800000FF070000F87F10F00042B1
:104C400048BF4042B0FA80F310FA03F10AD0C3F132
:104C50001D0303F580634FEA415002EB035202EB60
:104C6000D12170474FF0000070470EF1020E2EF078
:104C7000030E5EF8046B364205D4012A43EB0305AC
:104C800015F5001F12D8012841EB010C1CF5001F7F
:104C90000CD80ED14FEAD17C15F5001F0CEB4C0C53
:104CA0000CF1020C08BF4CEBD37C04E04FF0080C75
:104CB00001E04FEAD37C0CEB4C0526FA05F606F032
:104CC0000706B6F1040C06D20EEB860CBDE8704068
:104CD0004CF0010C6047DFE80CF0090B02024FF0CA
:104CE00000414FF00000A1F5002170BD19461046AB
:104CF000012851EB010418BFD4F5001484BF002033
:104D000001F0004170BD0808A0F500114FEA310123
:104D10007047000010B591EA030F48BF83F00043CD
:104D20003FF594AD841A71EB030C07D212198CF085
:104D3000004C43EB0C03001B61EB0C01DFF8A4E11A
:104D40004FEA1154A4EB135C1EEA430F18BF9EEA0E
:104D5000445F00F0B08023EA6E03524221EA04511E
:104D6000C3EB6E0338BF5B1EDCF1200E25D322FAA5
:104D70000CFE10EB0E0043FA0CFE41EB0E01CCF1E1
:104D8000200E03FA0EFE10EB0E0051F10001CCF1E3
:104D9000200E29D412FA0EF201EB0451BDE81040A6
:104DA00058BF7047401C1CBFB2F1004F704700282D
:104DB0000CBF491C20F00100704712EB020E43EBC0
:104DC000030218BF4FF0010E4EEA4202ACF1200C74
:104DD000DCF11E0E54D943FA0CFE10EB0E0051F11B
:104DE000FF31CCF11E0ED5D50EF1010E12FA0EFEDA
:104DF000404141EB010101EB445C5FEA5C5C10D98E
:104E000010EBDE7001EB045138BFBEF1004FBDE87E
:104E1000104018BF704700280CBF491C20F001004B
:104E2000704730D24FEAD42C11F5001124F40064FD
:104E30001BD0B1FA81F20B3AA41AA41ED2F12003BE
:104E4000914030FA03F31943904001EBCC71002CF0
:104E500001EB0451BDE81040A8BF704701F1C0410B
:104E60004FF0000001F000417047B0FA80F310FAF3
:104E700003F100D110BDE41A173C4805C90AE4E764
:104E800001EB045110BD491001EB0451BDE8104085
:104E90004FEA300002E04FF0000170474A0008BFBF
:104EA0000042F8D0B2F5001F28BF704701F0004162
:104EB0004FF0000070479EEA445F07D011EA5E0F92
:104EC000BDE8104004BF002100207047BDE810403D
:104ED00070B5FFF7CAFE00BF40DFF63E83F0004129
:104EE000104670470000E0FF43004FEAD30C4FEA42
:104EF0003C0C43401FBF40070CF1605113F0FE4FC4
:104F000070471CF0006F03D100200CF00041704787
:104F10000CF0004343EA507010B540EACC0000F0BA
:104F200089F800BF000000924FEA0001FFF7EBBED6
:104F30004FF000414FF00000A1F500217047000044
:104F400090EA010F48BF81F0004100F1C680421A8B
:104F50003CBF801A89184FEAD0524FF07F4C1CEAB0
:104F6000410FA2EBD15318BF9CEA026F00F03B80C7
:104F70004FF0004C4CEA00204CEA012121FA03FCDE
:104F800010EB0C0C1ED202F1FF325FEA1C2040EB4A
:104F9000C25038BF70471CF07F0F4FEA400C18BF5B
:104FA000BCF17F4F38BF7047C3F12003994008BF61
:104FB00020F00100BCF17F4F38BF7047A0F1C04026
:104FC00000F07EB84FEA3C00000A40EBC25028BF18
:104FD0001CF0FF0F4FEA400CE6D018BFBCF17F4F2A
:104FE00038BF7047EAE79CEA026F05D010EA5C0F11
:104FF00008BF00F00040704710B500F01BF800BF7C
:1050000064FBBE3E10F0004148BF4042B0FA80F35E
:1050100010FA03F2C3F19D030BD051EAC35101EB27
:105020001220530638BF704700F1010008BF20F07E
:10503000010070470EF1020E2EF0030E5EF8044BD5
:10504000244204D44FEA4102B2F17F4F11D84FEA13
:105050004003B3F17F4F0CD80ED14FEAD07CB2F1B0
:105060007F4F0CEB4C0C0CF1020C08BF4CEBD17CCD
:1050700004E04FF0080C01E04FEAD17C0CEB4C034C
:1050800024FA03F404F00704B4F1040C06D20EEB86
:10509000840CBDE810404CF0010C6047DFE80CF0D8
:1050A000070802024FF00040A0F5800010BD08463E
:1050B000420018BFD2F1807288BF00F0004010BDDE
:1050C000FF2141EAD050C0057047000090EA010F6F
:1050D00048BF81F000413FF53AAF421A04D882F050
:1050E0000042A0EB020011444FEAD0524FF07F4C37
:1050F0001CEA410FA2EBD15318BF9CEA026F4AD0C1
:105100004FF0004C4CEA00204CEA012121FA03FC4C
:10511000B0EB0C0C0FD412F0FE0F36D05FEA4C004F
:105120001DD5001240EBC25038BF70471CF03F0F36
:1051300018BF70470BE0A2F101025FEA1C2040EBB0
:10514000C25038BF70471CF07F0F18BF7047C3F1C3
:105150002003994014BF401E20F0010070478008D2
:105160004FEA122308BF7047B0FA80FCA2EB0C0292
:10517000CCF1280C60FA0CF093EA122F04BF00EB7C
:10518000C25070474FEAC3707047130A5FEADC10E1
:1051900008BF7047F6E79CEA026F04D010EA5C0F84
:1051A00008BF0020704710B5FFF744FF40DFF63E10
:1051B00081F000407047FBF718BD30313233343591
:1051C0003637383941424344454640305800303143
:1051D000323334353637383961626364656640305E
:1051E0007800040000080000000000000002000138
:1051F000000010000000000000000000024000005D
:10520000000000A00000000005400000000000C8F1
:10521000000000000C4000000000409C0000000066
:10522000194000000020BCBE000000003440000017
:10523000BFC91B8E00000004B5400000504BCFD00A
:105240006607E2CF010000006C4100003E8251AAD7
:10525000DFEEA73401000000D9420000DCB5A0E277
:105260003A301F97FFFFFFFFB4450000FD25A0C89F
:10527000E9A3C14FFFFFFFFFFF3F000000000080D8
:1052800000000000FF3F0000000000800000000060
:10529000310000004C4544304F4646004C454430F8
:1052A0004F4E0000F053000800000020D80000001E
:1052B0006C010008C8540008D8000020902E00009F
:1052C000880100081001000043000000F8FFFFFF04
:1052D0000040404040404040404041414141414009
:1052E00040404040404040404040404040404040BE
:1052F000400502020202020202020202020202024D
:105300000220202020202020202020020202020251
:1053100002029090909090901010101010101010A9
:1053200010101010101010101010101002020202B5
:1053300002028888888888880808080808080808F9
:1053400008080808080808080808080802020202F5
:10535000400000000000000000000000000000000D
:10536000000000000000000000000000000000003D
:10537000000000000000000000000000000000002D
:10538000000000000000000000000000000000001D
:10539000000000000000000000000000000000000D
:1053A00000000000000000000000000000000000FD
:1053B00000000000000000000000000000000000ED
:1053C00000000000000000000000000000000000DD
:1053D000000000001C00000043000000F8FFFFFF79
:1053E0000C0000000E0000000F0000002E00000066
:1053F00000000000000000000000000000000000AD
:105400000102030401020304060708090204060856
:10541000000000000000000000000000000000008C
:10542000000000000000000000000000000000007C
:10543000000000000000000000000000000000006C
:10544000000000000000000000000000000000005C
:1054500000000000000000009C5200089452000868
:105460009052000800000000000000000000000052
:105470000000000000000000244750474C4C2C3234
:105480003136302E373636382C4E2C3131303237DB
:105490002E373632342C452C3039323332312E30DF
:1054A000302C412C412A3630000000000000000062
:1054B00000000000000000000000000000000000EC
:0854C0000000000000000000E4
:040000050800027974
:00000001FF
